:020000040000FA
:06000000020A730201BBBD
:03002B000208C701
:03003300020418AC
:030043000207634E
:030053000200ECBC
:03006B000203D4B9
:03007B000203FA83
:100083000201500101FF01010503010F10FEFF09E9
:1000930013091309130913BF11B9110913961F008B
:1000A3000000005A20000000000C0000000C0001BA
:1000B300FFFF010101003705000000AC05E8036400
:1000C300006400B801020200080000050207051ED3
:1000D30002051E020A0A03B80B02803E0102FFFF5B
:1000E300011496511800020206C0E074F21204369D
:1000F300A2AFE433FED2AFE5A7FFE5A1F5085F5455
:10010300106006121A5375A1EFE5085F54086008E2
:10011300121A5975A1F7802BEFA2E0C0D0E508A20F
:10012300E092F01209B0158182F05017906198E0C7
:10013300F8900A88E0C398A2D265D0335002E8F061
:1001430075A1FEEEA2E092AF7F010204EDC0E07460
:10015300F2120436A2AFE433FED2AF9061A4E0F80A
:10016300759B00E59158540860087591F7121AA120
:10017300802AE59158541060087591EF121AA780F0
:100183001BE8A2E0C0D0E591A2E092F01209B015FD
:100193008182F05007E0C2E0F0121BEB9061A3E014
:1001A300F8E5E9585404600E121BC175E9FB906130
:1001B30093E0A2E640F2808BC0E074F2120436A210
:1001C300AFE433FED2AF9061A5E0F8E5BF58540425
:1001D300600675BFFB121C03020146C3E498F8E4F2
:1001E30099F912021F8026C3E49AFAE49BFBE920E3
:1001F300E7E912021FE498F8E499F922C3E498F8B6
:10020300E499F912021FE498F8E499F9C3E49AFA1D
:10021300E49BFB22EB20E7CFE920E7E0B90010BB2A
:100223000008E88AF084F8AAF022E4FBC8FA22EB7B
:1002330070227B10C833C8C933C9335007C39AC36C
:10024300DBF280069A50012ADBEAC833F4C8C933CB
:10025300F4C9FA2275F008E4C833C8C933C933C9ED
:100263009AC99B5004C92AC93BD5F0ECFBC833F4A7
:10027300C8E4C9FA22080808EAC0E0EBC0E086F047
:10028300E7A4FA180986F0E7A42AFA180986F0E722
:10029300A42AFA180986F0E7A42AFA1986F0E7A433
:1002A300FBE5F02AFA190886F0E7A42BFBE5F03A00
:1002B300FA190886F0E7A42BFBE5F03AFA181809B7
:1002C30086F0E7A4C5F02BFBE43AFA1908E7C5F07A
:1002D300C6A426F6E5F03BFBE43AFA1886F0E7A459
:1002E300F6E5F00826F6E43B08F6E43A08F6D0E033
:1002F300FBD0E0FA22E4CFC0E0E4CEC0E0E4CDC01E
:10030300E0E4CCC0E075F020C3E633F608E633F64C
:1003130008E633F608E633F6181818EC33FCED3329
:10032300FDEE33FEEF33FFC3EC9709ED9709EE972C
:1003330009EF97191919400FFFEC97FC09ED97FD89
:1003430009EE97FE191906D5F0BEECF709EDF7098A
:10035300EEF709EFF7191919D0E0FCD0E0FDD0E072
:10036300FED0E0FF222518C582C0E0E51934FFC5A1
:1003730083C0E0E518C3958224F810AF088583197C
:100383008582188008858319858218D2AFCEF0A3A1
:10039300E520F0A37808E608F0A3DEFAEFF0A3E582
:1003A3008124FAF8E608F0A3E608F0A3E608F0A330
:1003B3000808E608F0A3E608F0A315811581D0E04C
:1003C300FED0E0F8158115811581E8C0E0EEC0E0AC
:1003D30022C0E074F2120436A2AFE433FED2AFE5DA
:1003E30089A2E15003121951758900C2C5EEA2E03A
:1003F30092AF7F010204EDC0E074F2120436A2AFA3
:10040300E433FED2AFE58AA2E25003121951758A92
:1004130000C2EB80D8C0E074F2120436A2AFE4331A
:10042300FED2AFE58BA2E05003121951758B00C2C7
:10043300E880BAC0D02518C582C0E0E51934FFC5ED
:1004430083C0E0E518C3958224F310AF08858319B0
:100453008582188008858319858218D2AFC8F0A3D6
:10046300E9F0A3EAF0A3EBF0A37908E709F0A3D836
:10047300FAECF0A3EDF0A3EEF0A3EFF0A3D0E0F0DD
:10048300A3D0E0F0A3D0E0F0A3E520F0A3E5F0F0E3
:10049300A322120AD5B900030204D7E4900301781A
:1004A3004F790E8002F0A3D8FCD9FA90104FAA829C
:1004B300AB83900086786779018015E493A3AC82BF
:1004C300AD838A828B83F0A3AA82AB838C828D83D4
:1004D300D8E9D9E77582877583D674031208267520
:1004E300829D75831E7400120826851983851882E0
:1004F300E0C0E0A3E0F9A3E0FAA3E0FBA37808E0FF
:10050300F608A3DFFAE0FCA3E0FDA3E0FEA3E0FF0F
:10051300A3E0C0E0A3E0C0E0A3E0F5D0A3E0F520B2
:10052300A3E0A3F5F010AF0885831985821880082E
:10053300858319858218D2AFD082D083D0E0F8D0DA
:10054300E0320E000975F0108E1A8F1B85821F850D
:10055300831E851882851983E0CEA3E0CF851F8291
:10056300851E83EBC9EAC8EDCBECCAC3E833C8E9FF
:1005730033C9EA33CAEB33CBC3EA9EF51DEB9FF5D0
:100583001CB35004AB1CAA1DEC33CCED33CDD5F01A
:10059300DAAE1AAF1B22D083D082ECC0E0EDC0E00C
:1005A300E493A3FCE493A3FDED4C600D120671EC00
:1005B30024FFFCED34FFFD80EFE493A3FCE493A35D
:1005C300FDED4C600D12070EEC24FFFCED34FFFD36
:1005D30080EFD0E0FDD0E0FCE493A3C0E0E493C05F
:1005E300E022D083D082E9C0E0E493A3C386F0C5C0
:1005F300F095F0F908E493A386F0C5F095F0700B3D
:10060300E493A3C3994005E9048002A3E475F002CF
:10061300A42582F582E5F03583F583D0E0F9E493F0
:10062300A3C0E0E493C0E022851983851882E0A388
:10063300FEE0A3F5207808E0A3F608DFFAE0A3FFC5
:10064300E0A3C0E0E0A3C0E0E0A3C0E0E0A3C0E01B
:10065300E0A3C0E010AF0885821885831980088560
:100663008218858319D2AFD083D08202082CC0E0D0
:10067300C3E49396087401939618400FE49366704D
:100683000808740193661870007019A3A3C3E49358
:1006930096087401939618A3A3400DD0E0D0E0D040
:1006A300E00205D5A3A3A3A3A3A3D0E022740480EF
:1006B3000474028000CCC0E0EDC0E0E518C39CCC1C
:1006C300AD1950011D10AF068C188D1980068C18BA
:1006D3008D19D2AF1207A8D0E0FDD0E0FC2274023E
:1006E3008000CCC0E0EDC0E0E518C39CCCAD195050
:1006F300011D10AF068C188D1980068C188D19D228
:10070300AF120786D0E0FDD0E0FC22C0E0C0F08845
:10071300F0E4936670080874019366187000A8F0FB
:10072300A3A3700BD0F0D0E0D0E0D0E00205D5A3B6
:10073300A3D0F0D0E022D083D082CCC0E0E493A356
:1007430060061207E81470FAE493A3600612090E18
:100753001470FAD0E0FCE493A3C0E0E493C0E02279
:10076300C0E074F2120436A2AFE433FED2AFC2C0CB
:10077300E5D1A2E450031219C9EEA2E092AF7F01C2
:100783000204EDCAC0E0E493A3C582CCC582C5834D
:10079300CDC583F0A3C582CCC582C583CDC583DA1D
:1007A300E5D0E0CA22CAC0E0E0A3C582CCC582C5B9
:1007B30083CDC583F0A3C582CCC582C583CDC58354
:1007C300DAE6D0E0CA227009080808226016181871
:1007D30018C6C333C608C633C608C633C608C633ED
:1007E300C6D5E0EA22C0E0E493A3D39C5010E4937F
:1007F300A3C39C400AD0E0D0E0D0E0020756A3A3F5
:10080300A3D0E022C008C3E096F50808A3E096420F
:100813000808A3E096420808A3E09645087001D3B0
:10082300D00822C09FF59FE473D09F22D083D0824B
:10083300C09FE493C0E0740193C0E0740293F59FFA
:10084300222518F58210AF08F51840021519800803
:10085300F51840021519D2AF851983227404800A52
:1008630074038006740280027401C0E0F404120869
:1008730044D0E0120AB022C0D0251810AF08F518F2
:10088300500205198008F51850020519D2AFD0D0CF
:1008930022BB0102E722C082C08389828A83BB0014
:1008A30003E08002E493D083D08222601608080814
:1008B300C6C313C618C613C618C613C618C613C6AE
:1008C300D5E0EA22C0E0C0D0E8C0E0E5A8D2AFC2DC
:1008D300C7A2E792AFD0E0F8D0D0D0E032C3E0C6F1
:1008E30096F608A3E0C696F608A3E0C696F608A314
:1008F300E0C696F622251810AF08F5184002151920
:100903008008F51840021519D2AF22C0E0E493A382
:100913006C7009D0E0D0E0D0E0020756A3A3D0E08A
:1009230022E066701008A3E066700A08A3E0667010
:100933000408A3E06622E76670100809E766700AF8
:100943000809E76670040809E76622C3E09608A36E
:10095300E09608A3E09608A3E096A2D265D03322DE
:10096300C3E096F008A3E096F008A3E096F008A38E
:10097300E096F022E026F008A3E036F008A3E03684
:10098300F008A3E036F022E627F60809E637F60872
:1009930009E637F60809E637F622E026F608A3E06B
:1009A30036F608A3E036F608A3E036F622C0E0E800
:1009B300C0E0E58124FCF8E6A2E7D0E0F8D0E0222D
:1009C300700422600D18C6C333C608C633C6D5E00B
:1009D300F41822E657F60809E657F60809E657F62B
:1009E3000809E657F622E056F608A3E056F608A3F0
:1009F300E056F608A3E056F622E056F008A3E056C8
:100A0300F008A3E056F008A3E056F022E647F60804
:100A130009E647F60809E647F60809E647F622E439
:100A2300C396F608E496F608E496F608E496F622EA
:100A3300C3E7960809E7960809E7960809E79622A7
:100A4300C6F4C608C6F4C608C6F4C608C6F4C62269
:100A5300600D08C6A2E713C618C613C6D5E0F32275
:100A6300C3E09608A3E09608A3E09608A3E09622C5
:100A730075D000758140751801751903000204953E
:100A8300E0F608A3E0F608A3E0F608A3E0F6226088
:100A93000C08C6C313C618C613C6D5E0F422E6F085
:100AA30008A3E6F008A3E6F008A3E6F022CAC0E034
:100AB300E6F0A308DAFAD0E0FA22E0FAA3E0FBA317
:100AC300E0FCA3E0FD22EAF0A3EBF0A3ECF0A3ED3E
:100AD300F022E5C754F84401F5C77901222518F53A
:100AE30082E43519F58322C2AF75D69F0200002236
:100AF30012082F2AE40212082FB3220012082FC56E
:100B0300220012082F17230012082F78230012083F
:100B13002F02240012082FA6240012082FFA240003
:100B230012082F13250012082F39250012082F74DD
:100B3300250012082FB8250012082FDF2500120800
:100B43002F30260012082FE0260012082F982700C6
:100B530012082F60280012082F20290012082F6482
:100B6300290012082F89290012082FCC2900120806
:100B73002F192A0012082F712B0012082FF72B00B0
:100B830012082F152C0012082F3F2C0012082F5982
:100B93002C0012082F682C0012082F732C00120847
:100BA3002F332D0012082F8C2D0012082F4E2E00EC
:100BB30012082F562E0012082F1A2F0012082F8604
:100BC3002F0012082FB1300012082FC23000120874
:100BD3002F38310012082FCA310012082F22320099
:100BE30012082FE2320012082F09330012082F1BBC
:100BF300330012082F6E330012082FAB3300120894
:100C03002FB8330012082F3B350012082F903600FF
:100C130012082FC2360012082F55370012082F8EE4
:100C2300370012082FDA370012082FF6380012089F
:100C33002F3F3B0012082F4A3B0012082F553B0061
:100C430012082F5F3B0012082F6A3B0012082F8403
:100C53003B0012082F8E3B0012082F983B0012080E
:100C63002FA33B0012082FCB3B0012082F263C007A
:100C730012082F4A3C0012082F6E3C0012082FCC9A
:100C83003C0012082F103D0012082F2C3D001208C3
:100C93002FA33D0012082FDB3D0012082F273E0033
:100CA30012082F843E0012082F3E3F0012082F2205
:100CB300410012082F7B410012082FAB420012089B
:100CC3002FD1420012082F5A440012082FD6470092
:100CD30012082FA8490012082F714B0012082F1E6B
:100CE3004C0012082F894D0012082F284E001208BD
:100CF3002F6D4E0012082FD74E0012082FE64E001C
:100D030012082F6D510012082F1F530012082F8C49
:100D1300530012082F6B540012082F845500120839
:100D23002F01570012082F20570012082F75570064
:100D330012082F7A580012082FA2580012082FFA0F
:100D4300580012082FD9590012082F1D5A001208F3
:100D53002F685A0012082FD35A0012082F145C0070
:100D630012082F785C0012082FC65D0012082F2688
:100D7300600012082F57600012082F0F620012083C
:100D83002F64620012082F68630012082F056400A5
:100D930012082F5E640012082F11650012082FB38A
:100DA300650012082F53660012082FF86600120818
:100DB3002F7C800112082FBB800112082F028301B0
:100DC30012082F4C830112082F67840112082FD7B2
:100DD300840112082F0C850112082F808601120846
:100DE3002F03890112082F2C8A0112082FC28A01AE
:100DF30012082FCA930112082F5F940112082F467D
:100E0300970112082F39980112082F9A9801120896
:100E13002FB6990112082F9B9B0112082FAC9D013D
:100E230012082F169E0112082FE89E0112082F9F09
:100E33009F0112082FA99F0112082FD79F011208A3
:100E43002F94A00112082F6BA10112082F32A201C7
:100E530012082FE4A20112082F0DA30112082F2F4D
:100E6300A30112082F85A50112082F5DA601120800
:100E73002FA1A60112082F09A70112082FC1A7014C
:100E830012082FF3A70112082F37A80112082F6D9C
:100E9300A80112082FB9A80112082F0EA9011208E0
:100EA3002F13A90112082F66A90112082F8BA9017C
:100EB30012082F9AAA0112082FFEAA0112082F6EF8
:100EC300AB0112082FFAAB0112082FC7AE011208AB
:100ED3002FABAF0112082F2EB10112082F64B301FB
:100EE30012082F12B40112082FC2B40112082F03E3
:100EF300B70112082FA6B70112082FEDB701120888
:100F03002F99B90112082FADB90112082FB7B901F2
:100F130012082FDFB90112082FEBB90112082F0AAB
:100F2300BA0112082FEFBB0112082F26BC011208C9
:100F33002F30BC0112082F66BC0112082FB5BD016A
:100F430012082FF9BD0112082FA1BE0112082F8428
:100F5300BF0112082F2FC00112082F7BC1011208F5
:100F63002F79C20112082F1FC30112082FAFC3012B
:100F730012082FC6C30112082FFDC30112082F0741
:100F8300C40112082F12C40112082F30C401120821
:100F93002F74C40112082FD1C40112082FF6C40103
:100FA30012082F10C50112082F9CC50112082FB972
:100FB300C60112082F26C70112082F0DC8011208F7
:100FC3002F34C80112082FA8C80112082F23C90102
:100FD30012082F27CA0112082F1DCB0112082FCC8C
:100FE300CB0112082FDFCC0112082F7BCD01120891
:100FF3002F08CE0112082FE6CE0112082F1ECF01B3
:1010030012082F76CF0112082F3FD00112082F604C
:10101300D00112082FE7D00112082F0BD1011208BB
:101023002F2DD10112082F76D10112082F8CD30155
:1010330012082F73D40112082F24D50112082F5A36
:10104300D70112082FAAD70112082FEAD7011208D5
:101053002F2CD80112082F88D80112082FB6D801D7
:1010630012082FDAD80112082F2DD90112082F5B8D
:10107300D90112082F94D90112082FE9D9011208B6
:101083002F4FDA0112082FA3DB0112082FC6DD014F
:1010930012082F33DE0112082F5CDE0112082FE73E
:1010A300DE0112082F4EDF0112082F99DF0112080B
:1010B3002FBDDF0112082FE1DF0112082F3CE001F1
:1010C30012082F57E00112082F10E10112082FC355
:1010D300E80312082F02E90312082F78800212088E
:1010E3002FBE800212082F9E810212082FA08202B7
:1010F30012082FA3830212082F2F850212082F8DA7
:10110300850212082F4A860212082F6887021208E6
:101113002FD9870212082F15880212082F6388021D
:1011230012082F6D880212082FB1880212082F0DA2
:10113300890212082FA8890212082F258A02120891
:101143002FF48A0212082F8D8B0212082FAD8B0207
:1011530012082FE38B0212082F148C0212082FD5CA
:101163008C0212082FE58C0212082F398D02120807
:101173002F548D0212082F668D0212082F6F8D02D5
:1011830012082FC98D0212082F258E0212082F7103
:101193008E0212082F8C8E0212082FBD8E021208A7
:1011A3002FDA8E0212082FE68E0212082F5A9002AF
:1011B30012082F73900212082FDA900212082FEDF3
:1011C300900212082FFB900212082FAF910212080F
:1011D3002F93920212082F99930212082F2394023D
:1011E30012082F2D940212082F9A940212082FB17D
:1011F300940212082FE3940212082F1C950212087E
:101203002F46950212082FA7950212082FC79502A1
:1012130012082FE5950212082F2B960212082F5160
:10122300970212082F9E970212082FCD97021208D9
:101233002F43980212082F6B980212082FA49802CA
:1012430012082FB2980212082F0A990212082F5976
:10125300990212082F98990212082FC899021208AE
:101263002FF4990212082FFF990212082F1D9A02D8
:1012730012082FDF9A0212082FE99A0212082F246C
:101283009B0212082F3A9B0212082F8F9B0212080F
:101293002FA39B0212082FB19C0212082FC49C0299
:1012A30012082FD99C0212082F7B9D0212082FFED1
:1012B3009D0212082FBC9E0212082FC79E0212081D
:1012C3002FF39F0212082F0FA00212082F61A00212
:1012D30012082FA0A00212082FB5A00212082F1780
:1012E300A10212082FA6A10212082FF1A1021208CF
:1012F3002F42A40212082FC0A40212082F35A50200
:1013030012082F57A70212082F6FA70212082F7275
:10131300A70212082F7EA70212082F92A702120813
:101323002F9AA70212082FCDA70212082F7DA80219
:1013330012082FF3A80212082F66A90212082F1A07
:10134300AA0212082FCFAA0212082FEEAA0212082D
:101353002F8EAB0212082F9AAB0212082FC5AB02D5
:1013630012082FC8AB0212082F32AC0212082F5AF0
:10137300AD0212082F32AE0212082FBDAE021208C0
:101383002FD6AF0212082F93B00212082FCCB0024F
:1013930012082FFDB00212082FBBB10212082FEB67
:1013A300B10212082FC6B20212082F5FB30212084D
:1013B3002FEAB30212082F9BB40212082F1EB502A4
:1013C30012082F50B50212082F91B50212082FD41C
:1013D300F40112082F39F50112082F76F5011208CE
:1013E3002FC5F50112082FDBF70112082FBEF901F3
:1013F30012082F28FD0112082F63FD0112082F8503
:10140300FD0112082FE8FD0112082F1CFE0112082E
:101413002F3FFE0112082F40DA0212082FC8FE01E7
:1014230012082F91900312082F0F910312082F45D2
:10143300910312082FB1910312082F24930312086A
:101443002F40930312082F85930312082F1394033D
:1014530012082F6C940312082F99950312082FABCF
:10146300960312082F08970312082F749703120884
:101473002F0CE40212082F16980312082FC39803A7
:1014830012082FD5990312082F009A0312082F4B25
:101493009A0312082F929A0312082F249B0312080F
:1014A3002FDF9B0312082F78C30312082FF5C30302
:1014B30012082FD0C50312082FD7DD0312082F50AF
:1014C300DE0312082F5BDE0312082F9AA303120810
:1014D3002FA4A30312082FF0A30312082F5EA40363
:1014E30012082F7FA40312082F2FA50312082F38E9
:1014F300A50312082F8BA50312082FB4A503120806
:101503002F1BA60312082FACA60312082FEEA60367
:1015130012082F38A70312082F97A70312082FC307
:10152300A70312082F54A80312082F93A803120825
:101533002FD2A80312082F07A90312082F19A903F2
:1015430012082F2BA90312082F4AA90312082F539D
:10155300A90312082F09AA0312082F49AA03120884
:101563002F14FF0112082F78E80312082F55D40314
:1015730012082F8BD40312082FD4D40312082F245C
:10158300D60312082F4AE10112082F89E20112083B
:101593002FC5E20112082F84E40112082FADE401E4
:1015A30012082F40E70112082F84E70112082F0DBC
:1015B300E90112082FA5E90112082F0DEA0112080B
:1015C3002FAEEA0112082FF0EA0112082F30EB01C7
:1015D30012082FBBEC0112082F2BEE0112082F501B
:1015E300F00112082F7EF00112082FA5F001120856
:1015F3002FAEF00112082F35F10112082F53F40119
:1016030012082FB9E90312082FCFE90312082FEFAD
:10161300C60312082F02C70312082F9FC70312081D
:101623002FDAC70312082FF5C70312082F1AC803AE
:1016330012082F5FC80312082F90C80312082FC186
:10164300C80312082F47CA0312082FEEE503120836
:101653002F24E60312082F40E60312082F82E60325
:1016630012082F99E60312082F51E40212082FA93A
:10167300E40212082F92E50212082F2BE602120849
:101683002F75E60212082FD7E60212082F30E70261
:1016930012082F44E70212082F26E90212082FA18D
:1016A300E90212082FCBE90212082FC4EB02120839
:1016B3002FDFEB0212082F2EEC0212082F44EC024C
:1016C30012082F51EC0212082F85EC0212082F9EEC
:1016D300EC0212082F3EED0212082F98ED021208B9
:1016E3002FE6ED0212082FF9EE0212082F6AF1021B
:1016F30012082F9FF10212082F2DF20212082F8ECB
:10170300F20212082F93F20212082FCFF2021208EC
:101713002F31F30212082F01F40212082F26F402CC
:1017230012082F30F40212082F33F40212082FA2EA
:10173300F40212082FBDF40212082FD0F40212088B
:101743002FFCF40212082F37F50212082F3AF50284
:1017530012082F76F50212082F2AE80312082F42E7
:10176300E80312082F569C0312082FA59C031208A6
:101773002F479E0312082F03A00312082F4BA00329
:1017830012082F33A10312082F64A20312082F8615
:10179300A20312082FE2A20312082F66A303120862
:1017A3002F44670012082F6F670012082F5268003A
:1017B30012082FD7680012082F40690012082F8CD7
:1017C300690012082F0B6A0012082F9D6A00120885
:1017D3002F2D6B0012082F6F6B0012082FB86F00AC
:1017E30012082F38710012082F77710012082F5832
:1017F300720012082F5B720012082F0F7300120879
:101803002F44740012082FA5760012082F31770099
:1018130012082F3E780012082FD7780012082FC81D
:10182300790012082F4A7A0012082F008003120849
:101833002FBA800312082F2C810312082FC08103B3
:1018430012082FC7820312082F37830312082FF0C1
:10185300850312082FC7860312082F348703120843
:101863002FB1880312082F65890312082F138A03E7
:1018730012082F6E8A0312082FD98A0312082FCB5E
:101883008C0312082FDE8D0312082F778E031208A4
:101893002F3D8F0312082F61CA0312082FB5CA0305
:1018A30012082F0DCB0312082F58CB0312082FBA9F
:1018B300CB0312082F53CC0312082FBBCC031208FF
:1018C3002FC7CC0312082F92D80312082FC3D803B3
:1018D30012082F7DD90312082FE3D90312082F060C
:1018E300D70312082F23E50312082F34E503120848
:1018F3002FD4E50312082F6CDA0312082F7ADA03C8
:1019030012082FE7FF0112082F43E70312082F5392
:10191300E70312082F6EE70312082FCFE70312081D
:101923002F21E40312082FA6E40312082F0AE5036C
:1019330012082F24DC0312082F4CDC0312082FC7D4
:10194300DC0312082FE7DC0312082F3ADD03120829
:101953002F95DD0312082FAFE00312082FC4E00315
:1019630012082F38E10312082F52E10312082F65E2
:10197300E10312082F73E10312082F8DE10312080C
:101983002FADE10312082F6EBC0312082F7CBC039A
:1019930012082FF6BC0312082FDABD0312082F9387
:1019A300BF0312082FD77F0012082FE27A00120814
:1019B3002F4E7B0012082F0D7C0012082F177D007D
:1019C30012082F707E0012082FCB7E0012082F20E2
:1019D3007F0012082F297F0012082F3B7F00120877
:1019E3002FA57F0012082FB97F0012082FC37F0095
:1019F30012082F2FAF0312082F84AF0312082F8072
:101A0300B10312082FB2B10312082FD4B103120885
:101A13002FEDB10312082F06B20312082F10B303E0
:101A230012082FABB30312082F4EDF0312082F72D5
:101A3300DF0312082F8BDF0312082FBEDF03120808
:101A43002FEFDF0312082F1DE00312082F7FE0039F
:101A530012082F8EE00312082F98E00312082FA517
:101A6300E00312082F02CD0312082F28CD0312081A
:101A73002F65CD0312082F74CD0312082F93CD03C6
:101A830012082FFBCD0312082F04CE0312082F6375
:101A9300CE0312082F87CE0312082F46CF03120856
:101AA3002F53CF0312082F64CF0312082F50E903DB
:101AB30012082F6DE90312082F22B40312082F8096
:101AC300B50312082F8DB50312082FA0B503120812
:101AD3002FBFB50312082FD5B50312082FE9B5039D
:101AE30012082F5EB60312082FC3B60312082F7312
:101AF300B70312082F48B80312082F58B803120867
:101B03002F67B80312082FAAE60312082FCEE603A5
:101B130012082FF6E60312082F1EE70312082F926E
:101B2300CF0312082FB9CF0312082FDACF031208FD
:101B33002F3FD00312082FF8D10312082F11D2031D
:101B430012082F1DD20312082F31D20312082F4F70
:101B5300D20312082F59D20312082F63D20312089B
:101B63002F76D20312082FC9D20312082F02D303F0
:101B730012082F31D30312082F7FD30312082FCE5D
:101B8300D30312082FE9D30312082FF3D303120848
:101B93002F04D40312082F4AD40312082FD9E703C2
:101BA30012082FAFF50212082FD9F50212082FF5EC
:101BB300F50212082F08F60212082F1EF602120869
:101BC3002F7BF60212082FAEF60212082FEAFA0252
:101BD30012082F10FC0212082F43FC0212082F8F49
:101BE300FC0212082FBBFD0212082FE3FD021208AC
:101BF3002FF8FD0212082F08FE0212082F4CFE02D6
:101C030012082FADFE0212082FBDFE0212082FE2AA
:101C1300E10312082FFDE10312082F26E203120845
:101C23002F40E20312082F65E20312082F84E20318
:101C330012082F9CE20312082FCAE20312082FE4B2
:101C4300E20312082F0CE90312082FF8BF0312084E
:101C53002FFFBF0312082F0BC10312082F3BC10331
:101C630012082F61C10312082F84C10312082FA683
:101C7300C10312082FE0C10312082F46C203120842
:101C83002F7FC20312082FCBC20312082FF8C203FF
:101C930012082F18C30312082F15E30312082F2D60
:101CA300E30312082F1BE40312082F1EE403120898
:101CB3002FEBFE0212082F5DFF0212082F9BFF027B
:101CC30012082FDCFF0212082FA0B80312082FBF3F
:101CD300B80312082F0EB90312082F2AB9031208EA
:101CE3002F5BB90312082F6BB90312082F78B903BE
:101CF30012082F85B90312082F71BA0312082FAFE8
:101D0300BA0312082FB9BA0312082FC9BB0312086A
:101D13002FD4BB0312082FE6BB0312082FEFBB031C
:101D230012082FF9BB0312082F72AA0312082FB748
:101D3300AE0312082FC5AE0312082F8CE903120855
:101D43002FD9E90312082FA2D70212082F6BD6024C
:101D530012082FBFD50212082F05D40212082FB57F
:101D6300D10212082F3CD10212082FE3D00212082D
:101D73002F73D00212082F4AD00212082F2ACE0244
:101D830012082FF6CD0212082FC3CD0212082FA777
:101D9300CD0212082FC0CC0212082F78CC021208F1
:101DA3002FC3CA0212082F43CA0212082F40CA02C5
:101DB30012082F41C90212082F0FC90212082F4C13
:101DC300C80212082F77C60212082FD8E20212089F
:101DD3002F35E20212082FE8E00212082F93DE02E9
:101DE30012082F29DE0212082F08C60212082FDA62
:101DF300C50212082FD7C50212082FC4C502120844
:101E03002FE1DD0212082F6FC50212082F5EC502F3
:101E130012082F50C40212082F1AC40212082F539B
:101E2300DD0212082FD5970312082FC8C302120828
:101E33002F69C30212082F38C30212082F00C002F1
:101E430012082FC0BF0212082FB4BF0212082F14AA
:101E5300BF0212082F54BE0212082FD6BB0212086B
:101E63002F67B90212082F25B90212082FF9B702FA
:101E730012082FAEB70212082FEDB60212082F3048
:101E8300B60212082FC6B50212082F00B6021208B6
:101E93002F46DD0212082F6CFE0100000080FBE4D8
:101EA3007300013636010100010201000103010044
:101EB30001040106060502000007010034080100C1
:101EC3000F090401010D0100FF0E080000170200B5
:101ED30000190100FF1A0100011B0100FE1C010093
:101EE300081D0200001F0100012001000121020062
:101EF300002301000F240200002601000127010036
:101F030008280200FF2A0100072B0102402C0100D0
:101F1300002D0100012E0100012F0100FF30010BF4
:101F23001C310800003A0100083B01000F2F01009B
:101F33000003027102300160021102700201020209
:101F43000202028002100261023A0041006302733E
:101F5300027202620243020002130238000002000E
:101F63000204021202000200020002000204020440
:101F730002370037003C024402000239000002002D
:101F83000265020002350281020002050282028319
:101F93000200020300710030016000110070003183
:101FA300022003500480001000610000001400634D
:101FB300007300720062004300000013000600007B
:101FC30000000004001200000000000000000004F4
:101FD300000400370037003C02440000000000000A
:101FE30000000065000000350081000000050000CE
:101FF30000830000000304710402046004110470F0
:102003000402040204010402041004610400041421
:102013000463047304720462044304000413040697
:102023000400040004040412040004000400040077
:102033000451046400000400040004440400040088
:1020430004000400046504000435048104640005ED
:102053000400048304000401037103010301030169
:10206300030103010322030203010310030003001E
:1020730003000300030003000300034203000324DF
:1020830003060300030003040312032503230325AC
:1020930003230304030403000300030003440300B6
:1020A30003000323030003650321003503810300B9
:1020B3000305030003000300030101710101010192
:1020C30001110101013101010101018001100161CF
:1020D300013B0014006301730172016201430100BB
:1020E30001130106013D0135000401120100010045
:1020F300010001000104010401330133013C0144E7
:102103000132013600000100016501000135008143
:10211300010001050182018301000136000100066F
:102123000000000F0000000000000000000000009D
:102133000003FFFF00000403FFFF0000FFFF0FF495
:10214300010005C4040320000100000B000000008F
:102153000000000003010F000049181300011801DB
:102163000049180200B9170300BF170400C517057B
:1021730000CB170600D7171100F5171400FB17152E
:1021830000E917FFFF000001F90D06230E081D0EDD
:102193000B3B0E10750D02FF0D05110E07050E0CFE
:1021A300DB0D0DED0DFF000003EAF5E5D5D5C5B553
:1021B300A5959585857575656555554545353525CC
:1021C30025151505191249121F122512431237122C
:1021D30031124F1255125B1267122B1213120D128A
:1021E30000160F00000B150B020002220F32000035
:1021F3000609131B132113E3112713DD11E9111D25
:10220300111711531159114D110511691387138DAD
:10221300136F137B137513303016181920231A1CF0
:102223001E300C0E020B040B0A0708000F00383C8B
:102233003E363B3B352B432C303017181921301BCE
:102243001D1F30000119161816161523030000036D
:102253004948424D18172505025D132D1333133FCB
:102263001339133D12611281136D127312020402AA
:1022730001010101090229112F1123115F1100002E
:10228300000000003511471100BE040A15000400C8
:102293007F00E8030C002800000000000308100C76
:1022A3000A03080900040001FF1E1E0C05040F08A1
:1022B300C082C0838A828B83E0D2E7F012172302A5
:1022C3003367C082C083790012277F1256D0C08241
:1022D300C083900334124456D083D082C3E09CA3BE
:1022E300E09D500C125DA4FAA3E01222F6600109EE
:1022F300023367FBEA75F00BA4FAA8F075F00BEB59
:10230300A428FB900336E02AF8A3E03B8882F583F8
:10231300E0540F2274F7120368890812277F1228EA
:1023230025ACF075F00BE9A42CF9900336E028FEF8
:10233300A3E039FF74016508600674026508702024
:102343008A828B8312281112374774026508701B27
:102353001226D012285870138E828F83E4F0800BDC
:10236300EA2403FCEB1227F31227FFEEFAEFFB122A
:102373000AF90236A474F41203681266CB79008E4C
:10238300828F83E06076890A890B8065E50A75F0A0
:102393000BA4FAA8F075F00BE50B1223037046E5C6
:1023A3000A75F00BA4F8AAF075F00BE50B122837A9
:1023B3008E828F83E0850882850983122919850817
:1023C30082850983A3123747EE2403FCEF1227FC0F
:1023D30012352512514AAA08AB09120AF97901905C
:1023E3000334124B5FE50A2401F50AE50B3400F5CB
:1023F3000B1226D8E50A9AE50B9B40900238F1743C
:10240300F5120368EAFEEBFF740B120AE012352A99
:10241300750A01EC4D602BEC1266E7ED1256D012F3
:10242300373F7901120B05E5084509606F8508827E
:10243300850983A31266D57902AA08AB09120B0595
:10244300805AE5084509602B1256D4123D9E123579
:1024530026122842700CEEFAEFFB120B0BE9F50A79
:1024630080CBEE2403FA12277A70317903EEFAEF68
:10247300FB80CA8E828F83A3E064FE7003A3E0F423
:10248300700BEE24030A0A0A12277A700CEEFAEF95
:10249300FB120B0BE9F50A8003750A00A90A7F03F7
:1024A30002062B74F71203689003341236B4EA4B16
:1024B300602FEA75F00BA4FAA8F075F00BEBA428D3
:1024C300FBEAFEEBFF1215799003361236B4900344
:1024D300361249A46012EEFCEFFD79001214DD8080
:1024E30007900336E4F0A3F00236A49003341241BC
:1024F3000EC3EE98EF9922C082C083EC4D600512A3
:102503001CC380097C087D0079001214DD02336747
:1025130074F61203687900EA4B6018780088081291
:102523005A17EB125DA060047901780808E8C39498
:102533000840EA02375074F712036874F31208F87C
:10254300ECFEEDFF851882851983E4F004120AE09E
:10255300EAF0A3EB124ED07403120AE0AC82AD830F
:10256300EEFAEFFB120B1DEEFAEFFB120B23023612
:102573009F74F712036874F31208F8ECFEEDFF85FD
:102583001882851983E4F0EAFCEBFD7403120AE078
:102593001229127401120AE012373B8E828F8312C2
:1025A300374774FE68700374FF6960047901800221
:1025B300790002369F74F7120368EAFEEBFF1226D6
:1025C3001670141226218E828F83E0F4F88A828B90
:1025D30083E058F0120AF9A9080236A474F712032B
:1025E30068EAFEEBFF7508008E828F83E06022129B
:1025F3002616701D1226218A828B83E08F838E829A
:10260300F8E058700CE0F88A828B83E048F0120AF5
:10261300F980C4120AFFE9F50874016508221266FD
:10262300E012282912276BFAA3E039FB2274F41273
:1026330003688A088B097C007D001226D01227FFCD
:102643001227901266D27900850882850983A3E058
:1026530064FE7003A3E0F460717E007F008062EE8D
:10266300FAEF1222F66057EEFAEFFBEA75F00BA4CD
:10267300FAA8F075F00BEBA428FB900336E02AF5DB
:102683000AA3E03BF50B850882850983A3124E1E3E
:10269300850A82850B83A3E06A7003A3E06B701E37
:1026A300E50A2403FAE50B12277B700AE50A2403E3
:1026B300FCE50B1227FC12278479011256E612302F
:1026C3006F1226D8EE9AEF9B40950238F1EA240365
:1026D3000A0A0AEB229003341252BDC32274F31286
:1026E30003688A088B098A828B83A31266D5122713
:1026F3007F1266D2750C001226D012277B70547E8F
:10270300007F00804912275DFAA3E0398A82F583AE
:10271300E0540F603612275DF50AA3E039F50BE5A7
:102723000A2403FCE50B1228063400FB121CBDE946
:1027330064017017850A82850B83A312537EA3124B
:102743003747122784750C011256E612306F122494
:10275300EE40B2A90C7F0502062BEEF8EFF9E875FF
:10276300F00BA4F812276B22AAF075F00BE9A42A48
:10277300F9900336E02822EF122852221266E6EB84
:10278300221227901256E1EEF0A3EFF022E5081291
:1027930066E7E5092274F5120368EAFEEBFF8E8211
:1027A3008F83A31266D57C007D00EE24030A0A0AF8
:1027B300EF1227FFEEFAEFFB120AFFE9F50A7401A5
:1027C300650A70291266E0122825AAF075F00BE954
:1027D300122837850882F583122811122842700DBA
:1027E300E5082403FCE5091227F31227FF02249FBF
:1027F3003400FDEE2403FAEF221228063400FB1204
:102803000B1D223400FDE5082403FAE50922A31277
:1028130028162212281A22E0F8A3E0F98E828F8369
:10282300A322122829223400F583124112E875F0FD
:102833000BA4F822122771F508A3E039F50922E861
:10284300F0A3E9F0E5082403FAE50912285222125D
:1028530028586401223400FB120B23E92274F3127B
:10286300036874E61208F81266CB750C017508004C
:10287300750900750A00750B00851882851983E4B4
:10288300F0EE2403FCEF3400FD7403120AE0122976
:1028930012E964017023740B120AE012373F7401CA
:1028A300120AE0124E227003A3E069605185188278
:1028B300851983858208858309740D120AE0E41261
:1028C3002919740E120AE0123747740D120AE0AA8E
:1028D30082AB83120B41E96401700B740D120AE0A1
:1028E30085820A85830B780A120867AC08AD09EE66
:1028F300FAEFFB120B11740212087AE9F50CEEFAE7
:10290300EFFB120B3BA90C741A12087A0227581218
:102913002BE5120B47221236AF12410E22C082C0A2
:1029230083780079008003122A101226D8E89AE9E6
:102933009B5029E8FAE9FBEA75F00BA4FAACF075B1
:10294300F00BEBA42CFB900336E02AFCA3E03B8CBA
:1029530082F583E0540F70CF79008002790102334E
:1029630067C082C08390228F124164EC75F012A479
:10297300FCA8F075F012EDA428FD79FF7AF77B0A25
:102983001214DD02336774F7120368E9FEEAFF7A73
:10299300007B00780079008028E8FCE9FDEC75F005
:1029A30012A4FC85F00875F012EDA42508122E255B
:1029B300C39E400AE0FCEFC39C4003122F44122A3B
:1029C30010122E1940D30236A4C082C08378007936
:1029D300008003122A10122A04501F122E29F470A9
:1029E300F2E875F012A4F8AAF075F012E9A42AF936
:1029F30074F728FA740A39FB80047A007B000233E7
:102A03006790228F122EDAC3E89AE99B22E8240109
:102A130008E93400F92274F012036874F31208F819
:102A23008A0A8B0B8C0C8D0D8908EC450D6016AA58
:102A33000CAB0D120B958A0E8B0FAE0EAF0FEE4F34
:102A43006003022AD7120B6B8A0E8B0FA80EA90FF5
:102A5300E8FEE9FFE849607C90229D122B39602251
:102A63007403650860067404650870167A047903B4
:102A7300120B6590229D122B5040077A007B0002B7
:102A83002B3690229B122B39601B7401650860065C
:102A930074026508700F7A027901120B6590229B0C
:102AA300122B5050D68518828519837401F0120AAF
:102AB300E012514AAC0CAD0D7403120AE0122BDE86
:102AC300740B120AE0123532123B27E41251321210
:102AD300105D8004EE4F604A780074FF2508C394AC
:102AE30004500278048E828F8312514A8E828F8320
:102AF300A3A3A3A3E508F0E88E828F83A3A3A3A3D4
:102B0300A3125152120217122EF18E828F83A3A3A6
:102B1300A3A3A3A3A3F0122EE8120ABD1256CA124E
:102B23000AC9122B3E4005901053E4F0120F37EE02
:102B3300FAEFFB02411812526C49227A047900120F
:102B43000B6590228F125D86EA98EB9922122B690E
:102B530075832275828FE493C398F8A3E49399F95C
:102B6300C3EA98EB9922E493F8740193F92274F27F
:102B730012036874F31208F88A088B09ECFEEDFF60
:102B8300750A00EEFAEFFB120B958A0C8B0DA80C5D
:102B9300A90DE849603E88828983E065087004A333
:102BA300E06509602F88828983A3A3A3A3E0C3946C
:102BB3000550211255788518828519837401F01206
:102BC3000AE012557CEEFCEFFD7403120AE0122BAF
:102BD300DE750A01A90A740D024C16122BE5120BBD
:102BE3005322AA82AB83120B1D851882851983AAEF
:102BF30082AB832274F6120368122C33600FA3A3F3
:102C0300A3A3E014C3940450047901800279000261
:102C1300375074F6120368122C33600FA3A3A3A3D7
:102C2300E014C39402500479018002790002375002
:102C3300120B8F8A828B83E58245832274F61203FB
:102C430068122C33600BA3A3A3A3E0700479018063
:102C5300027900023750C082C083EAFCEBFD7A00A0
:102C63007B00023364C082C0837C007D0002336436
:102C730074F412036874F31208F8EAFEEBFF8C0A8B
:102C83008D0BC3EC94F8ED94FF4007EE4F700302F5
:102C93002D2C750800750900802E851882851983EF
:102CA3007401F0123097120AE01230A56013740316
:102CB300120AE0AC82AD83EEFAEFFB121CBDE970A1
:102CC30049E5082401122EC590228FE4125274E5BF
:102CD3000898E509995052E50875F012A4F8AAF08E
:102CE30075F012E509A42AF9125DB960D4EE4F70AC
:102CF300A974FF650A700474FF650B60C412308702
:102D0300650A7004A3E0650B70B7E50875F012A4BB
:102D1300F508A8F075F012E509A428F50974F7255C
:102D230008FA740A3509FB80047A007B000238EC48
:102D330074F412036874F31208F8750800120B9503
:102D43008A0A8B0BAE0AAF0BEE4F602A8518828579
:102D5300198374011236A9F8A3E0F9740B120AE07F
:102D63001237CA120B357C127D0079FFEEFAEFFBA6
:102D73001214DD750801122B3E5009901053740193
:102D8300F0120F37A9080238EC74F7120368E9FE52
:102D930074FE6A700374FF6B7800790070058052CB
:102DA300122A10122E19504AE8FCE9FDEC75F012B4
:102DB300A4FCAFF075F012EDA42F122E25F460E001
:102DC300E8FCE9FDEC75F012A4FC75F012EDA42FFC
:102DD300FD74F72CF582740A3DF583E06A7003A352
:102DE300E06B70BC8009122E2914C394044017129F
:102DF3002A10122A045018EE70EC122E2964016076
:102E030005E0640370E9123078FAA3E0FB80047AEA
:102E1300FE7BFF0236A490228F124168C3E89CE92F
:102E23009D22122F7922E8FAE9FBEA75F012A4FA3F
:102E3300ACF075F012EBA42CFB74FB2AF582740A38
:102E43003BF583E022120BA7023367C082C083796C
:102E53000180F274F01203688A0A8B0B7A047901F9
:102E6300120B658A0C8B0DEA450D603EEAC333FAFB
:102E7300EB33FB1215798A088B09AE08AF09EE4FC5
:102E830060237AFE7BFF120BAD74FE6A700374FF3E
:102E93006B601B8508828509831236B4E50824021A
:102EA300122EC580E1750C0080047E007F00850A28
:102EB30082850B83E50CF0EEFAEFFB02411DE5087A
:102EC3002407F508E5093400F5092290228F124101
:102ED30068C3EA9CEB9D22E493FA740193FB2212EC
:102EE30014D17403221256DBE4F090805A22E88E48
:102EF300828F83A3A3A3A3A3A3A3A3122F1374015A
:102F0300122F13A3F0EE24101256DEE4F0A3F022E6
:102F1300123B33A3A3A322C082C0837A007B008029
:102F23000419122F44122ECE5010122F63C394058E
:102F330050F0E970EC122F4D80047A007B000233CD
:102F430067EA24010AEB3400FB22EA75F012A4FAC3
:102F530075F012EBA428FB74F72AFA740A3BFB22E0
:102F6300EAFCEBFDEC75F012A4FCA8F075F012ED91
:102F7300A428122F7922FD74FB2CF582740A3DF5E7
:102F830083E02274F712036874F31208F87E007F5B
:102F93000002302BE50875F017A4F8A9F012601AA7
:102FA300FAA3E0FBEEF8EFF9E875F012A4F8ACF041
:102FB30075F012E9A42C1230866A7003A3E06B60EB
:102FC3003FE50875F017A4F8AAF0EA126019F8A310
:102FD300E0F97401120AE0E0687003A3E06960207D
:102FE300E50875F017A4F8EAF9747328FC740C3932
:102FF300FD7403120AE0AA82AB83121CBDE96014BC
:10300300E50875F017A4F8A9F0747128FA740C395F
:10301300FB12106905089022A1E493F8E508C39810
:103023005003022F9712306F90228F126360503932
:10303300EEF8EFF9123078F47003A3E0F460E6855C
:1030430018828519837401F0EEF8EFF9E875F01230
:10305300A4F875F012E9A42AF9123097120AE012C3
:1030630030A560C175080080AD02369FEE24010EC5
:10307300EF3400FF22E875F012A4F8AAF075F012FD
:10308300E9A42AF912308B2274F728F582740A39DD
:10309300F583E02274F928F582740A3912410C741D
:1030A3000B22E8F0A3E91237D2120B4DE922C082BA
:1030B300C083900341740BF0A3740EF00233677462
:1030C300F7120368EAFEEBFF900377E06408601BE6
:1030D300E0640460168E828F83E0540364017048B9
:1030E300123525123C1DE06406703D8E828F83A34A
:1030F300A3E064FE7003A3E0F4602D8E828F83A3AC
:10310300A312373B900368E0687003A3E069700B78
:10311300EE2415F582EF125DA06008120EC5E9F5E5
:10312300088008120ECB80F67508C2EEFAEFFB1288
:10313300157F0225DA74F41203688A088B098A82E0
:103143008B83E0F8A3E0FAE82AFAE43400FB1215D3
:10315300798A0A8B0BAE0AAF0BEE4F606385088248
:10316300850983E0FC7D0079001214DD8E828F8354
:10317300A3A31266D5120F078E828F83A3A3A3A3E3
:103183001236B4850882850983E0F8EE28F8EF3417
:1031930000123743850882850983A3E0C0E0EE244B
:1031A3000D1256CDD0E0F0120F19EE240E1256CDAB
:1031B300E9124D7FE0C0E0EE24111256CDD0E0F0CD
:1031C300EEFAEFFB0238F174F412036874EB1208A1
:1031D300F88A088B098C0A8D0BE9FE900377E0646B
:1031E300046005E06408700479C2802EA378081295
:1031F3000AA1EE90037E1233A5120AA17405120AE6
:10320300E0E9F07404120AE07401F07407120AE0B2
:10321300E4F0900377740212330274150238EE74EB
:10322300F612036874EB1208F8EAFEEBFF1249A1E9
:1032330060030232C67A077B0012157990033912B4
:1032430036B41249A160788E828F83120ABD90032F
:103253003A123C20120AC9126599C0E01232D2D048
:10326300E0F0EE2405FAEF3400FB8A088B098A822A
:10327300F583E0C0E01232CDD0E01238E8E0C0E0E0
:103283001232CDA3D0E0123728120ABD85188285E9
:103293001983120AC988828983E0C0E07405120A7F
:1032A300E0D0E0F0850882850983E0C0E074041271
:1032B3000AE0D0E0F07407120AE0123301800679C5
:1032C3001080027901741502374D1232D2A3229075
:1032D3000339E0FAA3E0F5838A82A3A3A3A322C060
:1032E30082C0831249A1600D9003391252AB90033F
:1032F30039E4F0A3F0120E35121009023367E41219
:1033030037D2121CF322C082C083900338E07003CB
:103313001217EF120BEF804CC082C083900338E08A
:103323009010527004E4F0802D7401F0900338E0A3
:10333300F460237C41E0C394415002E0FCECF8E0EC
:10334300C398F0EC75F0E8A4CCA8F075F003A428BA
:10335300FD7A801241707A527B107941121CDB8016
:1033630003120B9BD083D08202082C74F4120368DF
:1033730074EB1208F88A088B098C0A8D0B9003777B
:1033830074011233A5120AA17405120AE0E9F0745C
:1033930004120AE07403F07407120AE01233010204
:1033A300321D12373378082274F71203687C011236
:1033B3000C010236A474F212036874FC1208F8E9D3
:1033C300851882851983F0EAFEEBFF8C0A9003755A
:1033D300124456120E298A088B09EA4509700579A9
:1033E300CA0235208A828B83A3A3A3A3A3A3A3E04A
:1033F30064FE7003A3E0F4700579C30235209003E3
:1034030075124E1E12106F850882850983A3A3A32C
:10341300A3A3A3A3A3A3A3E00490038812368374F6
:1034230002120AE07402F014120AE0AA82AB8312B9
:103433000F738A0C8B0DAE0CAF0DEE4F700302357C
:1034430017123525123D927406F0A3A882A9839022
:1034530003621252E81240EBF0EE24131256CD74BD
:103463000112512A7440F0A3E4124D78A3A312353C
:1034730032123747EE24111256CDE50AF0EEFAEF79
:10348300FB120BCBE9FE6003023519900377740935
:10349300F0122EC1AA08FB794B121CDB850882852A
:1034A300098312367512374790036AE0F88518824C
:1034B300851983E068600CE090036A1237CE79E1E6
:1034C300121CDB90108D12373B90108FE068700355
:1034D300A3E069601A90033B12374790108F124E96
:1034E3001E120F3190108F1244567A011241707AD6
:1034F300007B049003C2E0F912163390108F12354B
:103503002A740278081209C3AC08AD09FA7B0412C5
:10351300417280027E10900520E4F0EEF9740402FB
:103523004C16EE1256DC22E0F508A3E0F509221250
:1035330035362212281AA32274F512036874E21294
:1035430008F8851882851983ECF0A3EDF0EAFEEB09
:10355300FF89087429120AE0E0F509742C120AE0C5
:10356300E0F50A900377E064046005E06408700501
:1035730079C202366D742A120AE0E064FE7003A376
:10358300E0F4700579C302366D9003777403123744
:10359300CE7950121CDB742A120AE0AA82AB83791B
:1035A3004B121CDB85188285198312367C12374730
:1035B300E50890036AF0742A120AE012367512378E
:1035C30047E50990036212368374CE55094480C0DF
:1035D300E07412120AE0D0E0F07401250A90038827
:1035E300F0740F120AE07402F0742A120AE0123720
:1035F3003B7407120AE0E8F0A3E91236BA7410121A
:103603000AE01237477405120AE0E508F0741B124A
:103613000AE0E4F090037D740FF07A7D7B03795424
:10362300121CDB90037C740FF07A7C7B03794712C6
:103633001CDB90037CE0C3940F50237405120AE053
:10364300E0C0E07402120AE0D0E0F07404120AE071
:103653007401F004120AE0AA82AB83121CFF740502
:10366300120AE0AA82AB83121CE1741E12087A02CA
:1036730024A112410E90036B2212410E9003752276
:10368300F0EEFCEFFD7A897B03121CC32274F71260
:103693000368EB90037FF0120E178005740D120878
:1036A3007A7F0102062B1236AFA3E022123728A33A
:1036B30022EAF0A3EBF02212372EF8A3E0F92274EA
:1036C300F712036874F81208F8EAFEEBFF7900902A
:1036D3000377E06408704485188285198374FDF0CC
:1036E300A374FFF0120F017402120AE01236B474CD
:1036F30005120AE0E41236AFE0C0E07404120AE0F7
:10370300D0E0123723C0E07406120AE0D0E0F07470
:1037130007120AE0E41237CE120F5574080236A1DD
:10372300123728E022F08E828F8322123733E02271
:10373300F08518828519832212410E22E0F8A3E056
:10374300F91256DBE8F0A3E9F02212087A7F0202AD
:10375300062BC082C08390034974BBF0A3740CF0A2
:103763009003EF74AFF0A3740FF090034D74F1F076
:10377300A3740CF090034F74BBF0A3740CF090038C
:103783005174F7F0A3740CF002336774F4120368F6
:1037930074F91208F88A088B098C0A8D0B85188234
:1037A3008519837808120AA17404120AE0E9F074F7
:1037B30005120AE0E4F07406120AE0E41237CE12AE
:1037C3000BDD74070238EEE8F0A3E91237D22212B8
:1037D3003733AA82AB832274F41203688A088B09F5
:1037E3008A828B831256E9EE4F70030238E6900308
:1037F300121249A460158A828B83A3A3E0F9EEFA1F
:10380300EFFB900313123C20121EA28E828F83A320
:10381300A3A3A3A3A3A3A3A3E0640270748E828FC4
:1038230083A3A3A3A3A3A3E0540270030238B88520
:103833000882850983A3A3E064E960798E828F837C
:10384300A3A3A3A3A3A3A3A3A3A3E070149010A271
:10385300E0048E828F83A3A3A3A3A3A3A3A3A3A301
:10386300F08E828F83A3A3A3A3A3A3A3A3A3A3E005
:10387300141238E8A3A3A37404F09010A3125124E4
:10388300E8F0A3E91261FD8B0BEA450B7003125BB1
:10389300DB8E828F83A3A3A3A3A3A3A3A3A3E06429
:1038A3000260128E828F83A3A3A3A3A3A3A3A3A3C4
:1038B300E06406702E8E828F83A3A3A3A3A3A3E049
:1038C300A2E0501F850882850983A3A3E0F9EEFADD
:1038D300EFFB121D898E828F83A3A3A3A3A3A3E06F
:1038E30054FEF08009123B2F22740D12087A7F04D4
:1038F30002062B74EC12036874DD1208F8EAFEEB7F
:10390300FF8C088D097437120AE0780C120A83754C
:103913000A007405120AE0AC82AD83121DDD741235
:10392300120AE0E070087415120AE0E060207405E2
:10393300120AE0E0A2E6501E8E828F83A3A3A3A304
:10394300A3A3A3A3A3124E1E120F8BE9600879034E
:10395300121CAB023B157405120AE0E0540C64041C
:103963007005750B018003750B00E0A2E5503575FA
:103973000A01E50BA2E0402C120F078A108B11A855
:1039830010A911123525E0687003A3E0696015746E
:1039930005120AE01266DC124E1A121D95E9600444
:1039A300790480AC7405120AE0E0A2E650227406A2
:1039B300120AE0E0540370187405120AE0E0540C94
:1039C300640C600CE0540C640860057510018003FE
:1039D3007510007405120AE0E05403F8740268706D
:1039E3000C1266DC124E1A121DCB023B15740168D1
:1039F300703AE510A2E05003123B1D7405120AE071
:103A0300A882A9837403120AE0E8F0A3E912410231
:103A1300851882851983123B27E0C0E07402120ADD
:103A2300E0D0E01237CE121E79023B15E8600302A4
:103A33003B1590035FE0640170108E828F83A3A314
:103A4300A3A3A3A3E070030239A37422120AE074B0
:103A530002124102741A120AE0123747E510A2E07B
:103A630050087405120AE0123B1DE50BA2E0506AF0
:103A7300EE240FF582EF125DA0C0E07417120AE086
:103A8300D0E0F09003141249A47003023B15120F07
:103A9300078A128B13A812A913741A120AE0E0689A
:103AA3007003A3E069706B780C12085F780A120840
:103AB3006B7808120867A910740C120AE0AC82AD87
:103AC300837421120AE0AA82AB83900314123C1D73
:103AD300121EA2740712087A8038780C12085F78D5
:103AE3000A12086B78081208679003751206B4EE81
:103AF3002412F582EF125ACE7423120AE0AC82AD7F
:103B030083740E120AE0AA82AB83121D7D7409121C
:103B1300087A742312087A0261C81266DC1252B959
:103B2300121DD722E8F0A3E9123B2F22123B3322C6
:103B3300F08E828F83A3A3A3A3A3A32274F71203FC
:103B4300681216DB0236A474F71203681216ED022C
:103B530036A4C082C0831216E702336774F71203D8
:103B6300681216F30236A474F71203687409120A72
:103B7300E0E0F508780812086B1216FF74010236AC
:103B8300A1C082C08312170B023367C082C08312A5
:103B9300171102336774F71203681217170236A45A
:103BA30074F7120368EAFEEBFF8908740165087075
:103BB300147900120D339022ACE493FC7900EEFAF1
:103BC300EFFB120CA90236A474F412036874F91201
:103BD30008F8E9FE8A088B098C0A8D0B7413120A04
:103BE300E0124E1E90056C1249A46027EE851882E0
:103BF300851983F07401120AE07808120AA1EAF821
:103C0300EBF97405120AE01237CA90056C123C1DD9
:103C1300121EA20237C5FB90034BE0F8A3E0F58325
:103C230088822274F7120368901055E0F97E0080B1
:103C33000B125D8C540D64017001190E123E20505D
:103C430003E970ED0236A474F7120368901056E08E
:103C5300F97E00800B125D8C548D64817001190E06
:103C6300123E205003E970ED0236A474F212036889
:103C7300890BE975F006A4240CF508E5F0122EC9AA
:103C83008A0CE508250CFAE5093400FB1215798A3C
:103C93000C8B0DAE0CAF0DEE4F6027AC08AD097960
:103CA300001214DD123525E50BF0EE2508F8EF358B
:103CB30009F98E828F83A3A3A3A3A3A3A3A3A31210
:103CC3003747EEFAEFFB024C1974F6120368EAFE6B
:103CD300EBFF120C85901054E0F8E9C3984009906B
:103CE3000345124E1E120C8BEE2402F8EF12542ED3
:103CF3009003471252E8900347E004F0EEFAEFFB1B
:103D0300120C91850882850983E00258E4C082C0C1
:103D1300837900900345800109124E1E8A828B83AA
:103D2300E582458370F202336774F7120368EAFE93
:103D3300EBFFEE4F60569003451249A4604E888214
:103D430089837A007B00EE65827003EF6583600FE1
:103D5300AA82AB83123D92E5824583602F80E79070
:103D63000345123D9E687002EF698E828F8370084F
:103D730012373B90034580031261DA123747EEFA9C
:103D8300EFFB121E49EEFAEFFB12157F0236A41267
:103D93003D9622124112888289832212410EEE221D
:103DA300C082C0839003458004888289831249A41A
:103DB300600B88828983124456EC4D70EC8A828BA7
:103DC30083E4F0A3F0E84960068882898380039046
:103DD30003451236B402336774F712036890034540
:103DE30080048A828B83123E1B4B60257E008001F8
:103DF3000E123E2050ECEE75F006A4FCADF0EA2C5A
:103E0300FCEB3DFDEC2410F582ED123E7070E18079
:103E1300047A007B000236A41252BDEA22123E79D4
:103E2300EEC3982274F71203687D0080010D123EE1
:103E330075EDC3985034ED75F006A4FEA8F0E8FFC5
:103E4300EA2EFEEB3FFFEE2410F582EF123E707078
:103E5300DCED75F006A4FEE8FFEA2EFAEB3FFBEA81
:103E63002411F582EB125DA04CF00236A4125DAC76
:103E73006922123E79221266E6EB3400F583E0F8FC
:103E83002274F6120368120DAB7A007B008025EAD8
:103E9300F8EBF9E875F006A4F8ACF075F006E9A4C0
:103EA3002C1252921265A7A3E4125388F0A3126551
:103EB300AD126724902297122B4840D37A007B00DF
:103EC300801C8A088B09740378081209C3124D46B3
:103ED300A374FEF0A304125168A3E4126724902292
:103EE300A0123F2340DC7A007B00801D8A088B09E7
:103EF300740378081209C37499125A18740F126262
:103F03005F74FEF0A3041267249022A6123F23409D
:103F1300DB9022AAE493900353F0123F2D02375013
:103F2300E493F8C3EA98EB9400227CE87D037A10CB
:103F33007B009003C2E0F912162D2274F01203687D
:103F430074F51208F88A088B09890A8C0BE9A2E038
:103F530050147508FC7509FFA2E15005D2E4024034
:103F630000D2E3024000124C057003A3E069700520
:103F730079000240CDAC0A7902AA08AB09120D8779
:103F8300E960EDE50AF50C780C12086B79027CFE0A
:103F93007DFFAA08AB0912498012087AE96003027F
:103FA30040CBE50AC2E5F50A9003B5E07051E50A96
:103FB300A2E6404B7403120AE0AC82AD83AA08ABBD
:103FC30009120B29E970321242A18A0C8B0DA80C3D
:103FD300A90DE8FEE9FFE8496025EE24020A0AEF8D
:103FE300122858601AEE2402FCEF3400FD74031209
:103FF3000AE0AA82AB83121CC3E50AD2E5F50A9054
:104003000348E0F50C900368E0F50EA3E0F50F78A4
:104013000E1208677D017C00900348E0F9AA0EABFD
:104023000F120D3F740212087AE9F8900348E00476
:10403300F0E860030240CBE50AA2E55004740E8069
:10404300027406C0E07401120AE0D0E01256FA8A44
:104053000E8B0FAE0EAF0FEE4F60691240EB1241A5
:1040630002888289837401F07478550AA31266EC7E
:10407300E50C1266ECA3E508F0E5091240DAE4F07A
:10408300E50AA2E5500F7403120AE0AC82AD83E89F
:1040930024061240D18E828F83A3A374FDF0A374F0
:1040A300FFF0E50B60159022ADE493F8E50BC398A0
:1040B3005009EE24131256CDE50BF0EEFAEFFB1286
:1040C3000BCB80067910800279C7740B8049FAE91B
:1040D3003400FB121CC32288828983A3A3A3A312E7
:1040E30040E622125461A322EE24171256DE740115
:1040F300F0120F01EE241A1256DEEAF0A3EB22F0BF
:104103001266E0340012410C22F58312411222E0C0
:10411300F8A3E0F922740D12087A7F0802062B74C3
:10412300F61203687A007B10125BE860089003D4F0
:104133007401F0802990060BE064019010A07006D2
:10414300E0FC79018004E0FC79037A007B00120C27
:10415300A99022951241647A007B101241720237B2
:104163005012416822E493FC740193FD227B00907A
:1041730003C2E0F91216272274EC1203688A088B33
:10418300098C0C8D0D890E7414120AE0124B5F74A6
:1041930016120AE0E0F510A3E0F511120F8BE960A7
:1041A300077AFF7BFF02429E90109FE06402600348
:1041B3000242917900AA08AB09120D8DA90E120DC6
:1041C300818A128B13AE12AF13EE4F700302427942
:1041D3008E828F83A3A3A3A3A3E064018E828F8324
:1041E300A3A37069124E1E8E828F83A3A3A3A3A3DE
:1041F300A3E0541860439022ABE4938E828F83A391
:10420300A3A3A3F0EA650C7003EB650D6014EA65E4
:104213000A7003EB650B600AEA65107003EB651126
:10422300701F7810120867AC0AAD0BAA0CAB0D1205
:104233001087740212087A8008900367125BD2A376
:10424300F074FE6A700374FF6B601D804EA3A3A31A
:10425300E0640360298E828F83A3A3A3A3A3E064F6
:104263000470057AFE0241A68E828F83A3A3A3A3C3
:10427300A3E0640270089003B4E064027010124279
:10428300A18B0BEA450B6006AA08AB09800DAA08AF
:10429300AB09900349123C1D121EA20261C8900390
:1042A3007512498612104B2274F7120368EAFEEB6B
:1042B300FF120B7DE9700AEEFAEFFB120B89E9603E
:1042C30006EEFAEFFB80047AFE7BFF0236A474F05D
:1042D3001203688A0A8B0B8C0E8D0F8909750800EF
:1042E300120F8BE979006003024448AA0AAB0B1250
:1042F3000D8DA909120D818A0C8B0DAE0CAF0DEE3D
:104303004F60198E828F83A3A3A3A3A3E0640270DB
:10431300559003B4E064027003024446AA0AAB0B4F
:1043230090034F123C1D121EA2120B8F8A0C8B0D91
:10433300A80CA90DE849700302444688828983A327
:10434300A3A3A3A3E0A2E04003024446750C01A289
:10435300E150687901AC0AAD0BAA0EAB0F120CD970
:10436300E970640244468E828F83A3A3A3A3A3E0D0
:1043730064037005750C0280528E828F83A3A3A3FE
:10438300A3A3E064016003024446900375124456FC
:104393008E828F831247AB8A0C8B0DA80CA90DE874
:1043A3004960D19022A4E493FA88828983E0C39A76
:1043B30050C2A3E0600302444680B988828983A384
:1043C300A3A3A3A3D2E1F0EE4F603A8E828F83A31F
:1043D300A3A3A3A3A3E05418602B7508018E828FB7
:1043E30083A3A31206B4750CFE750DFF780C120897
:1043F300677900AC0AAD0BAA0EAB0F120D9F7404C4
:1044030012087A803E900368E0650E7004A3E065AD
:104413000F70149022ACE493FCA909AA0AAB0B1207
:104423000CA9750801801CA90CAC0AAD0BAA0EAB34
:104433000F120CD9E9700C750801A909AA0AAB0B74
:10444300120D33A90802411DE50C2415F582E50D73
:104453001256E112513E2274EA12036874F01208F4
:10446300F88A0C8B0D8C088D097426120AE0E0F58E
:1044730014A3E0F5157512069003F51249A4602301
:10448300900375124456AA08AB091210758A108B53
:1044930011EA4511600D8A828B83A3E070057900D0
:1044A300024793E50C241DF50EE50D3400F50F8549
:1044B3000E82124990F51388828983A3A3A3E0FA9D
:1044C30088828983A3A3A3A3E0F9EA2400FEE43945
:1044D300FFAA08AB09120D39850E82850F83124797
:1044E300CEE029F50BE50AA2E5500375120E748799
:1044F300550A70177418550A6418600FE50C2417D1
:10450300F582E50D125DA0651260077901121CABFF
:10451300808C530A78C3EE94F8EF94FF501D790012
:10452300EEFAEFFB12479D601288828983A3A3A34F
:10453300A3A3A3E0541860030244A17808120867F8
:104543007D001247C112087AE9F874036870030208
:1045530044A1E8600302460C7418550A700302462E
:10456300C1E50AD2E0F50AA2E45004D2E1F50AA9B2
:104573000A124E1712479D605388828983A3A3A30F
:10458300A3A3A3E05418604488828983A3A3A3A3AD
:10459300A3E064017036E510451160309003751295
:1045A3004456888289831247AB8A0E8B0FA80EA9C3
:1045B3000FE849601788828983A3E0600F85108222
:1045C300851183A31258EF50030244A1E50AF50EA7
:1045D300780E12086B1247B412087AE9702B7C002C
:1045E3007D0085148285158374FFF0A3F0850C820A
:1045F300850D83A3A3A3A3A3A3A3A3E060031244F2
:104603004BA90B124E17121705851482851583E0EB
:10461300F47003A3E0F460399003B4E06402700320
:104623000244A1124B50E0FAA3E0123C19121EA25D
:10463300EA65087003EB650960030244A1EEFAEF33
:10464300123C19121EA2851482851583EAF0A3EB8E
:10465300F078081208677D011247C112087AA90A87
:10466300EEFAEFFB120D8D8A088B09A808A90990B1
:104673000368E0687003A3E0696003024784EEFA0D
:10468300EFFB120B8F8A088B09A808A909E8496078
:104693006E88828983A3A3A3A3E06401600D88824B
:1046A3008983A3A3A3A3E0640270548518828519A8
:1046B30083AC82AD83EEFAEFFB120B298055900396
:1046C30061E0600FE50AF50E780E12086B1247B42D
:1046D30012087AE50AF50E780E12086B79027CFE51
:1046E3007DFFEEFAEFFB12498012087AE9600302BC
:1046F300460C85148285158374FFF0A3024653127A
:104703000F01EAFCEBFD851882851983AA82AB832E
:10471300121CC3850C82850D83A3A3A3A3A3A3A308
:10472300A3E06401700F12444B7408120AE0AA82DA
:10473300AB83121CC312495A1255664430F50878EC
:104743000812086B7401120AE085820885830978D0
:1047530008120867740B120AE085820885830978BA
:1047630008120867E513F508780812086B7900EE5C
:10477300FCEFFD124E17120CD3740612087A024492
:10478300A112495A1256D01247CEE50BF0120F1957
:10479300741012087A7F0E02062B120D818A0E8B7B
:1047A3000FA80EA90FE84922A3A31252BD12107538
:1047B300227901AC08AD091252B212498022AC0B26
:1047C300A9131252B2120D3F74022212556EA3A303
:1047D300A3A32274F012036874F01208F88A0C8BF6
:1047E3000DECFAEDFB750F089003F51249A4601464
:1047F3001258E88A828B83E58245836007A3E070C1
:104803000302495512495A3400124990F50B888224
:104813008983124963E0FBEC2400FEE43BFF8882BA
:104823008983A3A3124963A3A3E0FBECF508E43B4C
:10483300F50988828983A3A3A3A3A3A3A3E0F50E09
:10484300E50AA2E45003750F10A2E550067408258B
:104853000FF50F748F550A700FE50C2417F582E5D9
:104863000D125DA0650F60087901121CAB0249555A
:10487300530A707800E50AA2E4502212495A125DE5
:10488300A02408FCA3E03400FD7408120AE0AA8205
:10489300AB83121CC37808E50AC2E4F50AE50AA251
:1048A300E5502812495A125DA028F8A3E03400F914
:1048B300E82408FCE93400FD851882851983AA825F
:1048C300AB83121CC3E50AC2E5F50AAC0EA90BEED5
:1048D300FAEFFB120D45E9F87403686075900368FD
:1048E300E06E7003A3E06F605EE87054E50AF50FB5
:1048F300780F12086B12497112087AE97054780A1A
:1049030012086B7401120AE085820C85830D780C02
:10491300120867740B120AE085820C85830D780CEC
:10492300120867E50BF50A780A12086BA90EAC08A2
:10493300AD09EEFAEFFB120CD3740612087A80125B
:10494300740468700D80B7780A12086B12497112EB
:10495300087A741002411AE50C241DF582E50D2234
:10496300A3A3A3E0FC88828983A3A3A3A322790141
:10497300124B571256E112498612498022120CFD3E
:10498300740122E0FCA3E0FDAA08AB0922F583121F
:104993003D96A3E0F50A88828983A3A3E0229003CE
:1049A300391253192274E812036874F51208F8EAED
:1049B300FEEBFF8C088D0989147423120AE0E0F5DD
:1049C3000F7424120AE0E0F512A3E0F51374261223
:1049D3000AE0E0F516A3E0F5177428120AE0E0F503
:1049E3000EA90F120D4B8A108B117401120AE07479
:1049F30008F0E50EA2E450037410F0E50EA2E550B2
:104A030004E02408F0851882851983AA82AB8312F7
:104A13000F738A0C8B0DEA450D7003024B37EA24A2
:104A230017F582EB124B49120F01E50C241AF5829C
:104A3300E50D1256D01236B47403120AE0AC82ADFF
:104A430083AA10AB11120B29E9601D124B417403A9
:104A5300120AE0A882A983E50C2418F582E50D1259
:104A630056D0E8F0A3E98024E50EA2E4501FE51038
:104A73006E7003E5116F7015124B41E50C2418F5A8
:104A830082E50D1256D0E512F0A3E513F0124B5058
:104A9300124B5F850A82F5837402F0A3E50E124B75
:104AA30067E50FF0EE850A82850B83A3A3A3F0EFDE
:104AB300850A82850B83A3A3A3A3124B67A3A3A396
:104AC300E508F0E509850A82850B83A3A3A3A3A3C5
:104AD300A3F0AA10AB11120D39E92514850A8285BA
:104AE3000B83A3A3A3A3A3A3A3F0750800E50EA2BE
:104AF300E45011AC12AD13E50A2408FAE50B124099
:104B0300D3750808E50EA2E55014AC16AD17E50AF7
:104B13002508F8E50B3400F9E824081240D1850C88
:104B230082850D83A3A3E510F0A3E511F0AA0CABD6
:104B33000D120BCB740B12087A7F1002062BE50CB7
:104B43002416F582E50D1256E17401F022124B573B
:104B53001256E122E50C1266E7E50D22E0F50AA301
:104B6300E0F50B22F0850A82850B83A3A32274F25E
:104B73001203688A088B09ECFEEDFF890A7900129B
:104B83004C057003A3E069700479018073750B0110
:104B9300900368E065087004A3E06509601F750B66
:104BA30000780B12086BA90AEEFCEFFDAA08AB090B
:104BB300120FC7740112087AE9F50B80417900EEF0
:104BC300FAEFFB120D81EA4B602B8A828B83A3A33E
:104BD300A3A3A3A3E05418601C7508FE7509FF780E
:104BE300081208678A828B83A3A31206B41264FC9B
:104BF30012087A80097901EEFAEFFB120C61A90B16
:104C03008014120D8D8A0C8B0DA80CA90D900368CE
:104C1300E0682212087A7F0602062B74F4120368F6
:104C23007508E175090D7A101262048B0BEA450BC6
:104C33007003123F2D900353E014F0700C9022AADE
:104C4300E493900353F0120D997E007F00806C85EE
:104C53000882850983A3A3A3A3E06059F46056E502
:104C6300082404F582E509125BCC70498508828526
:104C73000983A3A3A3A3A3E064037019790285089E
:104C830082850983124456850882850983A3A3126A
:104C93004E1E120CD9850882850983A3A3A3A3A35F
:104CA300E06401601085088285098374FEF0A30423
:104CB300124D78E4F012306F122EC19022991263D4
:104CC30060408C7E007F008039120EA78E088F090A
:104CD300740378081209C374592508FC740F350945
:104CE300FD7AE57B0C120E95EA4B70DD8E088F0979
:104CF300740378081209C3124D461265A7E4F01233
:104D0300306F9022A0E493F8C3EE98EF9400501B09
:104D13008E088F09740378081209C3124D4EE824D4
:104D230007F582E9125BCC70D680A17E007F0080FC
:104D33000A124D59600214F012306F12635D40F194
:104D43000238F1124D4E888289832274592508F85E
:104D5300740F3509F922EEF8EFF9E875F006A4F8B7
:104D6300AAF075F006E9A42AF974F928F582740EFD
:104D730039F583E022124D7FA3A3A322F085088295
:104D8300850983A3A32274F712036874E11208F858
:104D9300ECFEEDFF750800EE4F60728A828B83E0B4
:104DA300241C125BFD1249A460638A828B83124E1A
:104DB3001E851882851983AC82AD83EA241BF58294
:104DC300EB125ACEEA241CF582EB124E1A120EE9AC
:104DD300740B120AE0124E227003A3E069702E7462
:104DE30002120AE0E064017024741D120AE0123C0E
:104DF3001DE064017017741D120AE0123C1FA3A387
:104E0300E0F88E828F83E0687003750801A9087447
:104E13001F0236A1124B573400F5831252BD2212E2
:104E23002816E0682274F4120368E970247900906C
:104E3300034D123C1D121EA28A0A8B0BAE0AAF0B46
:104E430074FE6E700374FF6F701A9022A7E4936070
:104E530013790190034D123C1D121EA28A0A8B0B7B
:104E6300AE0AAF0B120F370231C374F61203687424
:104E7300F31208F81214E98A088B09AE08AF0990F7
:104E83000368E06E7003A3E06F60E9120F0DEA6E32
:104E93007002EB6F60DEEEFAEFFB120F8BE970D45A
:104EA300EE4F60D0851882851983E4F004120AE07E
:104EB300EEF0A3EF124ED0E970BA74FE6E70037475
:104EC300FF6F60B0EEFAEFFB740D02374D1237D26D
:104ED300120B4122C082C083120F370233677F0A4D
:104EE30002062B74F2120368EAFEEBFF8C0A8D0BA9
:104EF3008908740E120AE0E0F50974FC6E700374FD
:104F0300FF6F70057900024C197900120D8D8A0C20
:104F13008B0DAE0CAF0D900368E06E7003A3E06FD2
:104F23007006E509A2E650DCA9091263EA7061790B
:104F3300007AFE7BFF1263EA7056741855097003FA
:104F430002501D780079008003122A1090229912D2
:104F53002A07400302501DE8FAE9FBEA75F007A4AB
:104F6300FAACF075F007EBA42CFB74E72AF5827416
:104F73000D3BF583E0541870D0E875F007A4F8AA48
:104F8300F075F007E9A42AF974E128F8740D39F9EA
:104F930088828983A3A3A3A3A3A3E05418600974FD
:104FA3001855097003024F0788828983EEF0A3EF37
:104FB300F074FE650A700474FF650B6003125144BC
:104FC30088828983A3A3A3A3A3A3E509F0A2E05046
:104FD3000D88828983A3A3A3A3A3A3D2E2F07401C0
:104FE300650888828983A3A3A3A3A37038740112DD
:104FF3005168E0541860289022ABE4938882898337
:10500300A3A3A3A31251321210758B0DEA450D60B1
:1050130003024F077800790080397902024F099023
:105023000367E080D7E064017003024F0788828939
:1050330083A3A3A3A3A3A3E0541860079022ABE424
:10504300938004900366E01240DAE508F0024F070C
:10505300122A109022A1E493FAC3E89AE99400403B
:1050630003024F077A007B00804BEAFCEBFDEC75F3
:10507300F007A4FCAEF075F007EDA42EFD74E32C4D
:10508300F582740D3DF5831256E9E8FCE9FDEC75F4
:10509300F017A4FC85F00975F017EDA42509FD743C
:1050A300712CF582740C3DF583E06E7003A3E06F01
:1050B300609E122F44902299122ED140AD1241646A
:1050C300EC6A7002ED6B7088E875F017A4F8AAF02B
:1050D30075F017E9A42AF9747128FE740C39FF7C62
:1050E300177D007900EEFAEFFB1214DD8E828F83B9
:1050F30012514A900375125124A3A3A3A3A3A3E8B7
:10510300F0A3E912512A7401F0EE240E1256CD7465
:1051130001125152120217EE240D1256CDE802501D
:105123004F123536A3A322F0EE240F1256DE22F0DF
:1051330012513BAA0AAB0B22900375E0FCA3E0FDDE
:105143002288828983A3A3E50AF0A3E50BF022F06A
:10515300125157229022A4E4932401F8E43400F975
:105163007A027B00221240E6A32274ED1203688ABE
:10517300088B09890E12529B400579050252691268
:10518300174DAA08AB0912536D90229712526C6502
:105193000A7003E9650B70077AFE7BFF12536D906B
:1051A3002297E4125274E50A98E50B9940030252E0
:1051B300671252786012E50A75F006A4F875F006D6
:1051C300E50B1252C312157FE50E6018E50A75F060
:1051D30006A4F8AAF075F006E50B1252EF701A79DF
:1051E30001025269E50A75F006A4F8AAF075F00603
:1051F300E50B1252D0E4F0A3F0E50A75F006A4F82B
:10520300AAF075F006E50B125290A312557C888222
:105213008983A3AA82AB831252DE8A828B83E060E6
:105223003F125278603A8E108F1175120078101267
:105233000863E50EC333FCE433FDE50A75F006A409
:10524300F50AA8F075F006E50BA428F50B74FD2507
:105253000AF582740E350B124E1C122EE212087AD6
:10526300790080027907026400122B69E8229022F8
:105273008F125D8722E50A75F006A4F8AAF075F08F
:1052830006E50B1252CBF8A3E0F9E84922A42A124F
:10529300542488828983A322ECFEEDFF9022A2E4AA
:1052A30093F8E9C39822F5831252BD12157F22E5C4
:1052B3000C1266E7E50D3400F583E0FAA3E0FB2268
:1052C3001252CBFAA3E0FB221252D0E022A42AF915
:1052D30074FD28F582740E39F58322E50EF09010E3
:1052E300A11252E822E088828983F022125448F501
:1052F3000CE93400F50DE50EC333FAE433FB121564
:1053030079850C82850D83EAF0A3EBF0850C828509
:105313000D8312531922124112E8492274F4120325
:1053230068ECFEEDFF740C120AE012373B88088923
:105333000912536DAC0AAD0BECF8EDF990229712FC
:1053430053755021E875F006A4F8AAF075F006E944
:10535300125290E08E828F8312538812537E12373B
:10536300477900800279040238F1120D0F8A0A8B03
:105373000B22122EDAC3EC9AED9B2212410E850802
:10538300828509832212545D2274F61203687E001B
:105393007F008028EEF8EFF9E875F006A4F8ACF08A
:1053A30075F006E9A42CF974FB28F582740E1260DB
:1053B3000B6A7003A3E06B605712306F12635D409A
:1053C300D31263587002E96F704674FE6A700374F7
:1053D300FF6B703C7E007F00800312306F12635DB1
:1053E300502E124D5970F3EEF8EFF9E875F006A45C
:1053F300F812541A12544F6017125436F8E9125423
:105403002E88821252A9850882850983E4F0A3F0CD
:10541300EEFAEFFB02375075F006E912542222A48C
:105423002AF974F928F8740E39F9223400F9880836
:10543300890922EEF8EFF9E875F006A4F875F0068D
:10544300E912544822125422E8240422A3A374FE2E
:1054530012545A12531922F0A30412546122F088F1
:10546300828983A3A3A3A32274F6120368EA241DEB
:10547300F582EB125566F9604BEA241DF582EB12B7
:105483005DA02402FCA3E03400FD12529F400302FE
:105493005559780080298C828D83E0F508A3E0FFBD
:1054A300E5082400E43FF509E833FEE433FF7441E3
:1054B3002EF582740F3FF58312557C12555C08E874
:1054C300C39940D28A828B83A3A3A3A3A3A3A3A339
:1054D300A3124456900368E06C7003A3E06D700F51
:1054E3007C417D0F12277F124E1A120D038067EA4B
:1054F3002411F582EB125DA0605CFC74FF2CF07547
:105503000801780812086B75084175090F780812AD
:105513000867E9F508780812086BEA2412F582EBAC
:10552300125DA0F508780812086BEA2415F582EBE2
:105533001256D01206B4ECF912277F1244538A8212
:105543008B83A3A3A3A3A3A3A3A3A3124E1E120DF2
:105553001B740712087A023750EC24020C0CED344A
:1055630000FD221256E112556EE022E0F8A3E0F5A9
:10557300838882A32288828983E508F0A3E509F062
:105583002274EA12036874FD1208F88A148B158CCE
:105593000E8D0F890D7419120AE01256E9741B124D
:1055A3000AE0E0F511741C120AE0E0F50C741D1218
:1055B3000AE0124B5F741F120AE0E0F5106008E581
:1055C3000CC333240480027402C0E07401120AE0A5
:1055D300D0E01256FA8A088B09EA4509700302568D
:1055E300C58A828B83A3A3E514F0A3E5151261F3A7
:1055F300E50EF0A3E50FF0EA2413F582EB1256D083
:10560300E50DF0EA2414F582EB1256D0E511F0EA29
:105613002417F582EB125DA064017040120F078A14
:105623000E8B0FA80EA90F850882850983A3A3A358
:10563300A3E0687003A3E0696022EE4F6011E50800
:10564300241AF582E5091256D0EEF0A3EF800CE59B
:10565300082417F582E5091256D0E4F01256D41245
:1056630056E98E828F837405F0A3E5107004E50C70
:1056730080487401250C1256F37A008028850A822B
:10568300850B83E01256EF850A82850B83A3E08E98
:10569300828F83F0E50A2402F50AE50B3400F50B4B
:1056A300A30EAF830AEAC3950C40D2120F07EA1286
:1056B30056EF120F07EB8E828F83F0AA08AB091205
:1056C3000BCB7403024795EE240CF582EF1256E1DF
:1056D300221227901256E122EE240BF582EF3400BA
:1056E300F58322900334E0FEA3E0FF228E828F83B2
:1056F300F0A3AE82AF83221237D2120F7322C0827D
:10570300C083E9C333FCE433FDEA2CFAEB3DFBEA47
:1057130024FEF582EB34FF124E1C02336774F2123F
:10572300036889098A0A12529B40047900804075F4
:10573300080080020508E508C39509502AE508C357
:1057430033F8E433F9EE28F582EF39F583C082C0EC
:1057530083120F078A0C8B0DD083D082E0650C7007
:1057630004A3E0650D70CDE50A650870BE790102FA
:105773004C1974F012036874F31208F88A088B0941
:105783008C0A8D0B890C750D00120F8BE979006063
:1057930003025877AA08AB09120D8DA90C120D81CB
:1057A3008A0E8B0FAE0EAF0FEE4F70030258758E3D
:1057B300828F83A3A3A3A3A3A3E0A2E2400302587F
:1057C30075120F07EA650A7003EB650B7011780D0C
:1057D30012086BE4F50EF50F780E1208678044AAE1
:1057E3000AAB0B120B83E964017068851882851973
:1057F300837404F07401120AE012514A85188285F9
:105803001983AA82AB83120B41E964017045750DBC
:1058130001780D12086BE4F50EF50F780E12086788
:10582300750D00780D12086B780D12086B74081251
:105833000AE085820E85830F780E1208679022ADE9
:10584300E493F9AC0AAD0BAA08AB09120D1B74075C
:1058530012087A8E828F83A3A3A3A3A3A3E0A2E15A
:10586300400D8E828F83A3A3A3A3A3A3C2E2F075EB
:105873000D01A90D02411874F6120368E9FE7900BF
:10588300120D8DEEF9120D818A088B09A808A9095A
:10589300E849600612672EF98002790402375074D2
:1058A300F61203687E0790035CE070341258E88AAE
:1058B300088B09A808A909E8496025900361E064F9
:1058C3000188828983A3A3700B1258EF888289838E
:1058D3005001A3A3E0F9121093E9FEEE70027E07D4
:1058E300EEF902375012513B12107522E0FA88820A
:1058F3008983A3E0C39A2274EE120368EAFEEBFFE6
:10590300890A8C0C8D0B7412120AE012352A125973
:10591300C41252A25051890E750F007403780E12EF
:1059230009C3745F250EF582740F350FF583E0F814
:10593300E50CC398502DE50B6024751100740378B2
:10594300101209C374592510F8740F3511F98882A0
:105953008983A3A3A3A3A3A3E50C1259CEF07900D3
:10596300024EE1790380F979007AFE7BFF1259C474
:10597300E49365107004790280E6E50B60E0890E1C
:10598300750F007403780E1209C37459250EF87449
:105993000F350FF988828983A3EEF0A3EF1259CE56
:1059A300125168E50C1240E274FF1265ADE50AF08E
:1059B300900366E088828983A3A3A3A3A3A3A38000
:1059C3009C120D7BE9F5109022A0221266F0A3E54C
:1059D30008F0A3E5092274F6120368ECFF120D7BAD
:1059E3009022A01252A250278908750900740378E7
:1059F300081209C3745E125A18740F12625FE0F83A
:105A0300EFC3985006EFF07900800679038002799E
:105A130004023750EA2508F5822274F4120368EA77
:105A2300FEEBFF120D7BE9F50A9022A01252A25061
:105A330019750B007403780A1209C3745C250AF5FF
:105A430082740F350B124E1C801890034B1249A41D
:105A5300600CEEFAEFFB123C20121EA280047AFEC9
:105A63007BFF0238F174F61203688A828B83A3A347
:105A7300A3A3A3E4F0F88001089022A6E493F9E835
:105A8300C399501E8808125AC68C828D83A3A3A380
:105A9300A3A3A3A3A3E06970DFECFAEDFB120EADA1
:105AA300801EE4936870198C828D83A3A3A3A3A3A0
:105AB300A3A3A3A37406F07A008C828D83125BF1F7
:105AC30002375074E12508F582740F125DACF92298
:105AD30074F4120368EAFEEBFF8E828F83A3A3E0C4
:105AE30014125C08A3E0F9120E898A088B09EA45AF
:105AF300097003025BC98E828F83A3A3E070358A8A
:105B0300828B83A3A3A3A3A3A3A3A3A3E064028A77
:105B1300828B83A3A3A3A3A3A3A3A3A3601074064D
:105B2300F07AF08508828B83125BF1025BC97406FD
